{
    "contractName": "WebaverseERC20",
    "abi": [
        {
            "inputs": [
                {
                    "internalType": "string",
                    "name": "name",
                    "type": "string"
                },
                {
                    "internalType": "string",
                    "name": "symbol",
                    "type": "string"
                },
                {
                    "internalType": "uint256",
                    "name": "maxSupply_",
                    "type": "uint256"
                }
            ],
            "stateMutability": "nonpayable",
            "type": "constructor"
        },
        {
            "anonymous": false,
            "inputs": [
                {
                    "indexed": true,
                    "internalType": "address",
                    "name": "owner",
                    "type": "address"
                },
                {
                    "indexed": true,
                    "internalType": "address",
                    "name": "spender",
                    "type": "address"
                },
                {
                    "indexed": false,
                    "internalType": "uint256",
                    "name": "value",
                    "type": "uint256"
                }
            ],
            "name": "Approval",
            "type": "event"
        },
        {
            "anonymous": false,
            "inputs": [
                {
                    "indexed": false,
                    "internalType": "address",
                    "name": "signer",
                    "type": "address"
                },
                {
                    "indexed": false,
                    "internalType": "address",
                    "name": "claimer",
                    "type": "address"
                },
                {
                    "indexed": false,
                    "internalType": "uint256",
                    "name": "balance",
                    "type": "uint256"
                }
            ],
            "name": "Claim",
            "type": "event"
        },
        {
            "anonymous": false,
            "inputs": [
                {
                    "indexed": true,
                    "internalType": "address",
                    "name": "externalContract",
                    "type": "address"
                },
                {
                    "indexed": false,
                    "internalType": "address",
                    "name": "signer",
                    "type": "address"
                },
                {
                    "indexed": false,
                    "internalType": "address",
                    "name": "claimer",
                    "type": "address"
                },
                {
                    "indexed": false,
                    "internalType": "uint256",
                    "name": "balance",
                    "type": "uint256"
                }
            ],
            "name": "ExternalClaim",
            "type": "event"
        },
        {
            "anonymous": false,
            "inputs": [
                {
                    "indexed": true,
                    "internalType": "address",
                    "name": "previousOwner",
                    "type": "address"
                },
                {
                    "indexed": true,
                    "internalType": "address",
                    "name": "newOwner",
                    "type": "address"
                }
            ],
            "name": "OwnershipTransferred",
            "type": "event"
        },
        {
            "anonymous": false,
            "inputs": [
                {
                    "indexed": true,
                    "internalType": "address",
                    "name": "from",
                    "type": "address"
                },
                {
                    "indexed": true,
                    "internalType": "address",
                    "name": "to",
                    "type": "address"
                },
                {
                    "indexed": false,
                    "internalType": "uint256",
                    "name": "value",
                    "type": "uint256"
                }
            ],
            "name": "Transfer",
            "type": "event"
        },
        {
            "inputs": [
                {
                    "internalType": "address",
                    "name": "owner",
                    "type": "address"
                },
                {
                    "internalType": "address",
                    "name": "spender",
                    "type": "address"
                }
            ],
            "name": "allowance",
            "outputs": [
                {
                    "internalType": "uint256",
                    "name": "",
                    "type": "uint256"
                }
            ],
            "stateMutability": "view",
            "type": "function",
            "constant": true
        },
        {
            "inputs": [
                {
                    "internalType": "address",
                    "name": "spender",
                    "type": "address"
                },
                {
                    "internalType": "uint256",
                    "name": "amount",
                    "type": "uint256"
                }
            ],
            "name": "approve",
            "outputs": [
                {
                    "internalType": "bool",
                    "name": "",
                    "type": "bool"
                }
            ],
            "stateMutability": "nonpayable",
            "type": "function"
        },
        {
            "inputs": [
                {
                    "internalType": "address",
                    "name": "account",
                    "type": "address"
                }
            ],
            "name": "balanceOf",
            "outputs": [
                {
                    "internalType": "uint256",
                    "name": "",
                    "type": "uint256"
                }
            ],
            "stateMutability": "view",
            "type": "function",
            "constant": true
        },
        {
            "inputs": [
                {
                    "internalType": "uint256",
                    "name": "",
                    "type": "uint256"
                }
            ],
            "name": "burnedNonces",
            "outputs": [
                {
                    "internalType": "bool",
                    "name": "",
                    "type": "bool"
                }
            ],
            "stateMutability": "view",
            "type": "function",
            "constant": true
        },
        {
            "inputs": [],
            "name": "decimals",
            "outputs": [
                {
                    "internalType": "uint8",
                    "name": "",
                    "type": "uint8"
                }
            ],
            "stateMutability": "view",
            "type": "function",
            "constant": true
        },
        {
            "inputs": [
                {
                    "internalType": "address",
                    "name": "spender",
                    "type": "address"
                },
                {
                    "internalType": "uint256",
                    "name": "subtractedValue",
                    "type": "uint256"
                }
            ],
            "name": "decreaseAllowance",
            "outputs": [
                {
                    "internalType": "bool",
                    "name": "",
                    "type": "bool"
                }
            ],
            "stateMutability": "nonpayable",
            "type": "function"
        },
        {
            "inputs": [
                {
                    "internalType": "address",
                    "name": "spender",
                    "type": "address"
                },
                {
                    "internalType": "uint256",
                    "name": "addedValue",
                    "type": "uint256"
                }
            ],
            "name": "increaseAllowance",
            "outputs": [
                {
                    "internalType": "bool",
                    "name": "",
                    "type": "bool"
                }
            ],
            "stateMutability": "nonpayable",
            "type": "function"
        },
        {
            "inputs": [],
            "name": "name",
            "outputs": [
                {
                    "internalType": "string",
                    "name": "",
                    "type": "string"
                }
            ],
            "stateMutability": "view",
            "type": "function",
            "constant": true
        },
        {
            "inputs": [],
            "name": "owner",
            "outputs": [
                {
                    "internalType": "address",
                    "name": "",
                    "type": "address"
                }
            ],
            "stateMutability": "view",
            "type": "function",
            "constant": true
        },
        {
            "inputs": [],
            "name": "renounceOwnership",
            "outputs": [],
            "stateMutability": "nonpayable",
            "type": "function"
        },
        {
            "inputs": [],
            "name": "symbol",
            "outputs": [
                {
                    "internalType": "string",
                    "name": "",
                    "type": "string"
                }
            ],
            "stateMutability": "view",
            "type": "function",
            "constant": true
        },
        {
            "inputs": [],
            "name": "totalSupply",
            "outputs": [
                {
                    "internalType": "uint256",
                    "name": "",
                    "type": "uint256"
                }
            ],
            "stateMutability": "view",
            "type": "function",
            "constant": true
        },
        {
            "inputs": [
                {
                    "internalType": "address",
                    "name": "recipient",
                    "type": "address"
                },
                {
                    "internalType": "uint256",
                    "name": "amount",
                    "type": "uint256"
                }
            ],
            "name": "transfer",
            "outputs": [
                {
                    "internalType": "bool",
                    "name": "",
                    "type": "bool"
                }
            ],
            "stateMutability": "nonpayable",
            "type": "function"
        },
        {
            "inputs": [
                {
                    "internalType": "address",
                    "name": "sender",
                    "type": "address"
                },
                {
                    "internalType": "address",
                    "name": "recipient",
                    "type": "address"
                },
                {
                    "internalType": "uint256",
                    "name": "amount",
                    "type": "uint256"
                }
            ],
            "name": "transferFrom",
            "outputs": [
                {
                    "internalType": "bool",
                    "name": "",
                    "type": "bool"
                }
            ],
            "stateMutability": "nonpayable",
            "type": "function"
        },
        {
            "inputs": [
                {
                    "internalType": "address",
                    "name": "newOwner",
                    "type": "address"
                }
            ],
            "name": "transferOwnership",
            "outputs": [],
            "stateMutability": "nonpayable",
            "type": "function"
        },
        {
            "inputs": [
                {
                    "components": [
                        {
                            "internalType": "uint256",
                            "name": "tokenId",
                            "type": "uint256"
                        },
                        {
                            "internalType": "uint256",
                            "name": "balance",
                            "type": "uint256"
                        },
                        {
                            "internalType": "uint256",
                            "name": "nonce",
                            "type": "uint256"
                        },
                        {
                            "internalType": "uint256",
                            "name": "expiry",
                            "type": "uint256"
                        },
                        {
                            "internalType": "bytes",
                            "name": "signature",
                            "type": "bytes"
                        }
                    ],
                    "internalType": "struct WBVRSVoucher.NFTVoucher",
                    "name": "voucher",
                    "type": "tuple"
                }
            ],
            "name": "verifyVoucher",
            "outputs": [
                {
                    "internalType": "address",
                    "name": "",
                    "type": "address"
                }
            ],
            "stateMutability": "nonpayable",
            "type": "function"
        },
        {
            "inputs": [],
            "name": "maxSupply",
            "outputs": [
                {
                    "internalType": "uint256",
                    "name": "",
                    "type": "uint256"
                }
            ],
            "stateMutability": "view",
            "type": "function",
            "constant": true
        },
        {
            "inputs": [
                {
                    "internalType": "address",
                    "name": "to",
                    "type": "address"
                },
                {
                    "internalType": "uint256",
                    "name": "amount",
                    "type": "uint256"
                }
            ],
            "name": "mint",
            "outputs": [],
            "stateMutability": "nonpayable",
            "type": "function"
        },
        {
            "inputs": [
                {
                    "internalType": "address",
                    "name": "account",
                    "type": "address"
                }
            ],
            "name": "isAllowedMinter",
            "outputs": [
                {
                    "internalType": "bool",
                    "name": "",
                    "type": "bool"
                }
            ],
            "stateMutability": "view",
            "type": "function",
            "constant": true
        },
        {
            "inputs": [
                {
                    "internalType": "address",
                    "name": "minter",
                    "type": "address"
                }
            ],
            "name": "addMinter",
            "outputs": [],
            "stateMutability": "nonpayable",
            "type": "function"
        },
        {
            "inputs": [
                {
                    "internalType": "address",
                    "name": "minter",
                    "type": "address"
                }
            ],
            "name": "removeMinter",
            "outputs": [],
            "stateMutability": "nonpayable",
            "type": "function"
        },
        {
            "inputs": [
                {
                    "internalType": "address",
                    "name": "claimer",
                    "type": "address"
                },
                {
                    "components": [
                        {
                            "internalType": "uint256",
                            "name": "tokenId",
                            "type": "uint256"
                        },
                        {
                            "internalType": "uint256",
                            "name": "balance",
                            "type": "uint256"
                        },
                        {
                            "internalType": "uint256",
                            "name": "nonce",
                            "type": "uint256"
                        },
                        {
                            "internalType": "uint256",
                            "name": "expiry",
                            "type": "uint256"
                        },
                        {
                            "internalType": "bytes",
                            "name": "signature",
                            "type": "bytes"
                        }
                    ],
                    "internalType": "struct WBVRSVoucher.NFTVoucher",
                    "name": "voucher",
                    "type": "tuple"
                }
            ],
            "name": "claim",
            "outputs": [
                {
                    "internalType": "uint256",
                    "name": "",
                    "type": "uint256"
                }
            ],
            "stateMutability": "nonpayable",
            "type": "function"
        },
        {
            "inputs": [
                {
                    "internalType": "address",
                    "name": "claimer",
                    "type": "address"
                },
                {
                    "internalType": "address",
                    "name": "contractAddress",
                    "type": "address"
                },
                {
                    "components": [
                        {
                            "internalType": "uint256",
                            "name": "tokenId",
                            "type": "uint256"
                        },
                        {
                            "internalType": "uint256",
                            "name": "balance",
                            "type": "uint256"
                        },
                        {
                            "internalType": "uint256",
                            "name": "nonce",
                            "type": "uint256"
                        },
                        {
                            "internalType": "uint256",
                            "name": "expiry",
                            "type": "uint256"
                        },
                        {
                            "internalType": "bytes",
                            "name": "signature",
                            "type": "bytes"
                        }
                    ],
                    "internalType": "struct WBVRSVoucher.NFTVoucher",
                    "name": "voucher",
                    "type": "tuple"
                }
            ],
            "name": "externalClaim",
            "outputs": [
                {
                    "internalType": "uint256",
                    "name": "",
                    "type": "uint256"
                }
            ],
            "stateMutability": "nonpayable",
            "type": "function"
        }
    ],
    "bytecode": "0x6101206040523480156200001257600080fd5b5060405162001e9338038062001e93833981016040819052620000359162000314565b604051806040016040528060118152602001702bb2b130bb32b939b296bb37bab1b432b960791b815250604051806040016040528060018152602001603160f81b8152508484816003908051906020019062000093929190620001b7565b508051620000a9906004906020840190620001b7565b5050825160209384012082519284019290922060c083815260e08290524660a0818152604080517f8b73c3c69bb8fe3d512ecc4cf759cc79239f7b179b0ffacaa9a75d522b39400f818a018190528183019890985260608101959095526080808601939093523085830152805180860390920182529390920190925280519401939093209092526101005250620001403362000165565b6008555050336000908152600760205260409020805460ff19166001179055620003da565b600680546001600160a01b038381166001600160a01b0319831681179093556040519116919082907f8be0079c531659141344cd1fd0a4f28419497f9722a3daafe3b4186f6b6457e090600090a35050565b828054620001c59062000387565b90600052602060002090601f016020900481019282620001e9576000855562000234565b82601f106200020457805160ff191683800117855562000234565b8280016001018555821562000234579182015b828111156200023457825182559160200191906001019062000217565b506200024292915062000246565b5090565b5b8082111562000242576000815560010162000247565b600082601f8301126200026f57600080fd5b81516001600160401b03808211156200028c576200028c620003c4565b604051601f8301601f19908116603f01168101908282118183101715620002b757620002b7620003c4565b81604052838152602092508683858801011115620002d457600080fd5b600091505b83821015620002f85785820183015181830184015290820190620002d9565b838211156200030a5760008385830101525b9695505050505050565b6000806000606084860312156200032a57600080fd5b83516001600160401b03808211156200034257600080fd5b62000350878388016200025d565b945060208601519150808211156200036757600080fd5b5062000376868287016200025d565b925050604084015190509250925092565b600181811c908216806200039c57607f821691505b60208210811415620003be57634e487b7160e01b600052602260045260246000fd5b50919050565b634e487b7160e01b600052604160045260246000fd5b60805160a05160c05160e05161010051611a746200041f60003960006114d00152600061151f015260006114fa0152600061147e015260006114a70152611a746000f3fe608060405234801561001057600080fd5b506004361061014d5760003560e01c80637e2499cc116100c3578063a8689ce21161007c578063a8689ce2146102e8578063a9059cbb146102fb578063ad637e671461030e578063d5abeb0114610321578063dd62ed3e14610329578063f2fde38b1461036257600080fd5b80637e2499cc1461025f5780638da5cb5b146102825780639468f2ca146102a757806395d89b41146102ba578063983b2d56146102c2578063a457c2d7146102d557600080fd5b80633092afd5116101155780633092afd5146101e4578063313ce567146101f9578063395093511461020857806340c10f191461021b57806370a082311461022e578063715018a61461025757600080fd5b806306fdde0314610152578063095ea7b31461017057806318160ddd146101935780631f3b4c90146101a557806323b872dd146101d1575b600080fd5b61015a610375565b60405161016791906118ae565b60405180910390f35b61018361017e3660046117f3565b610407565b6040519015158152602001610167565b6002545b604051908152602001610167565b6101836101b33660046116bd565b6001600160a01b031660009081526007602052604090205460ff1690565b6101836101df366004611769565b61041d565b6101f76101f23660046116bd565b6104cc565b005b60405160128152602001610167565b6101836102163660046117f3565b61057f565b6101f76102293660046117f3565b6105bb565b61019761023c3660046116bd565b6001600160a01b031660009081526020819052604090205490565b6101f76106a0565b61018361026d36600461187c565b60056020526000908152604090205460ff1681565b6006546001600160a01b03165b6040516001600160a01b039091168152602001610167565b6101976102b53660046117a5565b6106d6565b61015a610788565b6101f76102d03660046116bd565b610797565b6101836102e33660046117f3565b61084e565b6101976102f636600461170b565b6108e7565b6101836103093660046117f3565b610b5f565b61028f61031c36600461183f565b610b6c565b600854610197565b6101976103373660046116d8565b6001600160a01b03918216600090815260016020908152604080832093909416825291909152205490565b6101f76103703660046116bd565b610c48565b606060038054610384906119f3565b80601f01602080910402602001604051908101604052809291908181526020018280546103b0906119f3565b80156103fd5780601f106103d2576101008083540402835291602001916103fd565b820191906000526020600020905b8154815290600101906020018083116103e057829003601f168201915b5050505050905090565b6000610414338484610ce3565b50600192915050565b600061042a848484610e07565b6001600160a01b0384166000908152600160209081526040808320338452909152902054828110156104b45760405162461bcd60e51b815260206004820152602860248201527f45524332303a207472616e7366657220616d6f756e74206578636565647320616044820152676c6c6f77616e636560c01b60648201526084015b60405180910390fd5b6104c18533858403610ce3565b506001949350505050565b6006546001600160a01b031633146104f65760405162461bcd60e51b81526004016104ab90611951565b6001600160a01b03811660009081526007602052604090205460ff1661055e5760405162461bcd60e51b815260206004820152601c60248201527f45524332303a204d696e74657220646f6573206e6f742065786973740000000060448201526064016104ab565b6001600160a01b03166000908152600760205260409020805460ff19169055565b3360008181526001602090815260408083206001600160a01b038716845290915281205490916104149185906105b69086906119cd565b610ce3565b6105c4336101b3565b61062d5760405162461bcd60e51b815260206004820152603460248201527f45524332303a204f6e6c79207768697465206c6973746564206d696e7465727360448201527308185c9948185b1b1bddd959081d1bc81b5a5b9d60621b60648201526084016104ab565b6008548161063a60025490565b61064491906119cd565b11156106925760405162461bcd60e51b815260206004820152601960248201527f45524332303a204d617820737570706c7920726561636865640000000000000060448201526064016104ab565b61069c8282610fd6565b5050565b6006546001600160a01b031633146106ca5760405162461bcd60e51b81526004016104ab90611951565b6106d460006110b5565b565b6000806106e283610b6c565b9050610703816001600160a01b031660009081526020819052604090205490565b61071f5760405162461bcd60e51b81526004016104ab90611903565b61072e81858560200135610e07565b604080516001600160a01b03838116825286166020808301919091528501358183015290517f70eb43c4a8ae8c40502dcf22436c509c28d6ff421cf07c491be56984bd9870689181900360600190a1505060200135919050565b606060048054610384906119f3565b6006546001600160a01b031633146107c15760405162461bcd60e51b81526004016104ab90611951565b6001600160a01b03811660009081526007602052604090205460ff161561082a5760405162461bcd60e51b815260206004820152601b60248201527f45524332303a204d696e74657220616c7265616479206164646564000000000060448201526064016104ab565b6001600160a01b03166000908152600760205260409020805460ff19166001179055565b3360009081526001602090815260408083206001600160a01b0386168452909152812054828110156108d05760405162461bcd60e51b815260206004820152602560248201527f45524332303a2064656372656173656420616c6c6f77616e63652062656c6f77604482015264207a65726f60d81b60648201526084016104ab565b6108dd3385858403610ce3565b5060019392505050565b600082816108f484610b6c565b6040516370a0823160e01b81526001600160a01b038083166004830152919250908316906370a082319060240160206040518083038186803b15801561093957600080fd5b505afa15801561094d573d6000803e3d6000fd5b505050506040513d601f19601f820116820180604052508101906109719190611895565b61098d5760405162461bcd60e51b81526004016104ab90611903565b604051636eb1769f60e11b81526001600160a01b0382811660048301523060248301526000919084169063dd62ed3e9060440160206040518083038186803b1580156109d857600080fd5b505afa1580156109ec573d6000803e3d6000fd5b505050506040513d601f19601f82011682018060405250810190610a109190611895565b11610a705760405162461bcd60e51b815260206004820152602a60248201527f57425652533a20417072726f76616c206e6f742073657420666f7220576562616044820152690766572736545524332360b41b60648201526084016104ab565b6040516323b872dd60e01b81526001600160a01b0382811660048301528781166024830152602086013560448301528316906323b872dd90606401602060405180830381600087803b158015610ac557600080fd5b505af1158015610ad9573d6000803e3d6000fd5b505050506040513d601f19601f82011682018060405250810190610afd919061181d565b50604080516001600160a01b038381168252888116602080840191909152870135828401529151918716917f111ebfff7ae758e422941bfa7b90fc5ddafbb23589ebcdf6da904a05c3422ace9181900360600190a25050506020013592915050565b6000610414338484610e07565b60008160600135421115610bc25760405162461bcd60e51b815260206004820152601b60248201527f566f75636865722068617320616c72656164792065787069726564000000000060448201526064016104ab565b60408083013560009081526005602052205460ff1615610c1a5760405162461bcd60e51b8152602060048201526013602482015272496e76616c6964206e6f6e63652076616c756560681b60448201526064016104ab565b60408083013560009081526005602052908120805460ff19166001179055610c4183611107565b9392505050565b6006546001600160a01b03163314610c725760405162461bcd60e51b81526004016104ab90611951565b6001600160a01b038116610cd75760405162461bcd60e51b815260206004820152602660248201527f4f776e61626c653a206e6577206f776e657220697320746865207a65726f206160448201526564647265737360d01b60648201526084016104ab565b610ce0816110b5565b50565b6001600160a01b038316610d455760405162461bcd60e51b8152602060048201526024808201527f45524332303a20617070726f76652066726f6d20746865207a65726f206164646044820152637265737360e01b60648201526084016104ab565b6001600160a01b038216610da65760405162461bcd60e51b815260206004820152602260248201527f45524332303a20617070726f766520746f20746865207a65726f206164647265604482015261737360f01b60648201526084016104ab565b6001600160a01b0383811660008181526001602090815260408083209487168084529482529182902085905590518481527f8c5be1e5ebec7d5bd14f71427d1e84f3dd0314c0f7b2291e5b200ac8c7c3b925910160405180910390a3505050565b6001600160a01b038316610e6b5760405162461bcd60e51b815260206004820152602560248201527f45524332303a207472616e736665722066726f6d20746865207a65726f206164604482015264647265737360d81b60648201526084016104ab565b6001600160a01b038216610ecd5760405162461bcd60e51b815260206004820152602360248201527f45524332303a207472616e7366657220746f20746865207a65726f206164647260448201526265737360e81b60648201526084016104ab565b6001600160a01b03831660009081526020819052604090205481811015610f455760405162461bcd60e51b815260206004820152602660248201527f45524332303a207472616e7366657220616d6f756e7420657863656564732062604482015265616c616e636560d01b60648201526084016104ab565b6001600160a01b03808516600090815260208190526040808220858503905591851681529081208054849290610f7c9084906119cd565b92505081905550826001600160a01b0316846001600160a01b03167fddf252ad1be2c89b69c2b068fc378daa952ba7f163c4a11628f55a4df523b3ef84604051610fc891815260200190565b60405180910390a350505050565b6001600160a01b03821661102c5760405162461bcd60e51b815260206004820152601f60248201527f45524332303a206d696e7420746f20746865207a65726f20616464726573730060448201526064016104ab565b806002600082825461103e91906119cd565b90915550506001600160a01b0382166000908152602081905260408120805483929061106b9084906119cd565b90915550506040518181526001600160a01b038316906000907fddf252ad1be2c89b69c2b068fc378daa952ba7f163c4a11628f55a4df523b3ef9060200160405180910390a35050565b600680546001600160a01b038381166001600160a01b0319831681179093556040519116919082907f8be0079c531659141344cd1fd0a4f28419497f9722a3daafe3b4186f6b6457e090600090a35050565b60008061111383611160565b9050610c41816111266080860186611986565b8080601f0160208091040260200160405190810160405280939291908181526020018383808284376000920191909152506111dd92505050565b604080517f9351747b1e9d1d5ecc2259decffb60239f521e243e85645e0762ed1d775876776020828101919091528335828401528301356060828101919091529183013560808201529082013560a08201526000906111d79060c00160405160208183030381529060405280519060200120611201565b92915050565b60008060006111ec858561124f565b915091506111f9816112bf565b509392505050565b60006111d761120e61147a565b8360405161190160f01b6020820152602281018390526042810182905260009060620160405160208183030381529060405280519060200120905092915050565b6000808251604114156112865760208301516040840151606085015160001a61127a8782858561156d565b945094505050506112b8565b8251604014156112b057602083015160408401516112a586838361165a565b9350935050506112b8565b506000905060025b9250929050565b60008160048111156112d3576112d3611a28565b14156112dc5750565b60018160048111156112f0576112f0611a28565b141561133e5760405162461bcd60e51b815260206004820152601860248201527f45434453413a20696e76616c6964207369676e6174757265000000000000000060448201526064016104ab565b600281600481111561135257611352611a28565b14156113a05760405162461bcd60e51b815260206004820152601f60248201527f45434453413a20696e76616c6964207369676e6174757265206c656e6774680060448201526064016104ab565b60038160048111156113b4576113b4611a28565b141561140d5760405162461bcd60e51b815260206004820152602260248201527f45434453413a20696e76616c6964207369676e6174757265202773272076616c604482015261756560f01b60648201526084016104ab565b600481600481111561142157611421611a28565b1415610ce05760405162461bcd60e51b815260206004820152602260248201527f45434453413a20696e76616c6964207369676e6174757265202776272076616c604482015261756560f01b60648201526084016104ab565b60007f00000000000000000000000000000000000000000000000000000000000000004614156114c957507f000000000000000000000000000000000000000000000000000000000000000090565b50604080517f00000000000000000000000000000000000000000000000000000000000000006020808301919091527f0000000000000000000000000000000000000000000000000000000000000000828401527f000000000000000000000000000000000000000000000000000000000000000060608301524660808301523060a0808401919091528351808403909101815260c0909201909252805191012090565b6000807f7fffffffffffffffffffffffffffffff5d576e7357a4501ddfe92f46681b20a08311156115a45750600090506003611651565b8460ff16601b141580156115bc57508460ff16601c14155b156115cd5750600090506004611651565b6040805160008082526020820180845289905260ff881692820192909252606081018690526080810185905260019060a0016020604051602081039080840390855afa158015611621573d6000803e3d6000fd5b5050604051601f1901519150506001600160a01b03811661164a57600060019250925050611651565b9150600090505b94509492505050565b6000806001600160ff1b03831660ff84901c601b0161167b8782888561156d565b935093505050935093915050565b80356001600160a01b03811681146116a057600080fd5b919050565b600060a082840312156116b757600080fd5b50919050565b6000602082840312156116cf57600080fd5b610c4182611689565b600080604083850312156116eb57600080fd5b6116f483611689565b915061170260208401611689565b90509250929050565b60008060006060848603121561172057600080fd5b61172984611689565b925061173760208501611689565b9150604084013567ffffffffffffffff81111561175357600080fd5b61175f868287016116a5565b9150509250925092565b60008060006060848603121561177e57600080fd5b61178784611689565b925061179560208501611689565b9150604084013590509250925092565b600080604083850312156117b857600080fd5b6117c183611689565b9150602083013567ffffffffffffffff8111156117dd57600080fd5b6117e9858286016116a5565b9150509250929050565b6000806040838503121561180657600080fd5b61180f83611689565b946020939093013593505050565b60006020828403121561182f57600080fd5b81518015158114610c4157600080fd5b60006020828403121561185157600080fd5b813567ffffffffffffffff81111561186857600080fd5b611874848285016116a5565b949350505050565b60006020828403121561188e57600080fd5b5035919050565b6000602082840312156118a757600080fd5b5051919050565b600060208083528351808285015260005b818110156118db578581018301518582016040015282016118bf565b818111156118ed576000604083870101525b50601f01601f1916929092016040019392505050565b6020808252602e908201527f57425652533a20417574686f72697a6174696f6e206661696c65643a20496e7660408201526d616c6964207369676e617475726560901b606082015260800190565b6020808252818101527f4f776e61626c653a2063616c6c6572206973206e6f7420746865206f776e6572604082015260600190565b6000808335601e1984360301811261199d57600080fd5b83018035915067ffffffffffffffff8211156119b857600080fd5b6020019150368190038213156112b857600080fd5b600082198211156119ee57634e487b7160e01b600052601160045260246000fd5b500190565b600181811c90821680611a0757607f821691505b602082108114156116b757634e487b7160e01b600052602260045260246000fd5b634e487b7160e01b600052602160045260246000fdfea264697066735822122097b8c14c2a34ec0555487ea8fe1c6d4aca44b844912e07a776e4fc37df4d9a8364736f6c63430008070033",
    "immutableReferences": {
        "4760": [
            {
                "length": 32,
                "start": 5287
            }
        ],
        "4762": [
            {
                "length": 32,
                "start": 5246
            }
        ],
        "4764": [
            {
                "length": 32,
                "start": 5370
            }
        ],
        "4766": [
            {
                "length": 32,
                "start": 5407
            }
        ],
        "4768": [
            {
                "length": 32,
                "start": 5328
            }
        ]
    },
    "source": "// SPDX-License-Identifier: MIT\n\npragma solidity ^0.8.7;\n\nimport \"@openzeppelin/contracts/token/ERC20/ERC20.sol\";\nimport \"@openzeppelin/contracts/access/Ownable.sol\";\nimport \"../utils/WBVRSVoucher.sol\";\n\ncontract WebaverseERC20 is ERC20, WBVRSVoucher, Ownable {\n    // Mapping of addresses that are allowed to mint tokens\n    mapping(address => bool) private _whitelistedMinters;\n\n    // Max supply of tokens\n    uint256 private _maxSupply;\n\n    // Event occuring when a token is redeemed by a user in the webaverse world for the native smart contract\n    event Claim(address signer, address claimer, uint256 balance);\n\n    // Event occuring when a token is redeemed by a user in the webaverse world for the external smart contract\n    event ExternalClaim(\n        address indexed externalContract,\n        address signer,\n        address claimer,\n        uint256 balance\n    );\n\n    modifier onlyMinter() {\n        require(\n            isAllowedMinter(_msgSender()),\n            \"ERC20: Only white listed minters are allowed to mint\"\n        );\n        _;\n    }\n\n    /**\n     * @dev Create a new fungible token\n     * @param name Name of the token\n     * @param symbol Token identifier\n     * @param maxSupply_ Sets the token market cap. This value is immutable, it can only be\n     * set once during construction.\n     * Default cap: 2147483648000000000000000000 or (2**31) + '000000000000000000'\n     */\n    constructor(\n        string memory name,\n        string memory symbol,\n        uint256 maxSupply_\n    ) ERC20(name, symbol) {\n        _maxSupply = maxSupply_;\n        _whitelistedMinters[msg.sender] = true;\n    }\n\n    /**\n     * @return Maximum number of tokens that can be minted\n     */\n    function maxSupply() public view returns (uint256) {\n        return _maxSupply;\n    }\n\n    /**\n     * @dev Mint ERC20 tokens\n     * @param to Tokens created for this account\n     * @param amount Number of tokens to mint for this call\n     */\n    function mint(address to, uint256 amount) public onlyMinter {\n        require(\n            totalSupply() + amount <= maxSupply(),\n            \"ERC20: Max supply reached\"\n        );\n        _mint(to, amount);\n    }\n\n    /**\n     * @dev Checks if an address is allowed to mint ERC20 tokens\n     * @param account address to check for the white listing for\n     * @return true if address is allowed to mint\n     */\n    function isAllowedMinter(address account) public view returns (bool) {\n        return _whitelistedMinters[account];\n    }\n\n    /**\n     * @dev Add an account to the list of accounts allowed to create ERC20 tokens\n     * @param minter address to whitelist\n     */\n    function addMinter(address minter) public onlyOwner {\n        require(!isAllowedMinter(minter), \"ERC20: Minter already added\");\n        _whitelistedMinters[minter] = true;\n    }\n\n    /**\n     * @dev Remove an account from the list of accounts allowed to create ERC20 tokens\n     * @param minter address to remove from whitelist\n     */\n    function removeMinter(address minter) public onlyOwner {\n        require(isAllowedMinter(minter), \"ERC20: Minter does not exist\");\n        _whitelistedMinters[minter] = false;\n    }\n\n    /**\n     * @notice Redeems an NFTVoucher for an actual NFT, authorized by the owner.\n     * @param claimer The address of the account which will receive the NFT upon success.\n     * @param voucher A signed NFTVoucher that describes the NFT to be redeemed.\n     * @dev Verification through ECDSA signature of 'typed' data.\n     * @dev Voucher must contain valid signature, nonce, and expiry.\n     */\n    function claim(address claimer, NFTVoucher calldata voucher)\n        public\n        virtual\n        returns (uint256)\n    {\n        // make sure signature is valid and get the address of the signer\n        address signer = verifyVoucher(voucher);\n\n        require(\n            balanceOf(signer) != 0,\n            \"WBVRS: Authorization failed: Invalid signature\"\n        );\n\n        // transfer the token to the claimer\n        _transfer(signer, claimer, voucher.balance);\n        emit Claim(signer, claimer, voucher.balance);\n        return voucher.balance;\n    }\n\n    /**\n     * @notice Redeems an Voucher for actual ERC20 tokens, authorized by the owner from an external contract.\n     * @param claimer The address of the account which will receive the balance upon success.\n     * @param contractAddress The address of the contract from which the token is being transferred\n     * @param voucher A signed Voucher that describes the ERC20 tokens to be redeemed.\n     * @dev Verification through ECDSA signature of 'typed' data.\n     * @dev Voucher must contain valid signature, nonce, and expiry.\n     */\n    function externalClaim(\n        address claimer,\n        address contractAddress,\n        NFTVoucher calldata voucher\n    ) public returns (uint256) {\n        IERC20 externalContract = IERC20(contractAddress);\n        // make sure signature is valid and get the address of the signer\n        address signer = verifyVoucher(voucher);\n\n        require(\n            externalContract.balanceOf(signer) != 0,\n            \"WBVRS: Authorization failed: Invalid signature\"\n        );\n        require(\n            externalContract.allowance(signer, address(this)) > 0,\n            \"WBVRS: Aprroval not set for WebaverseERC20\"\n        );\n\n        // transfer the token to the claimer\n        externalContract.transferFrom(signer, claimer, voucher.balance);\n        emit ExternalClaim(contractAddress, signer, claimer, voucher.balance);\n        return voucher.balance;\n    }\n}\n",
    "sourcePath": "/home/mohsin/Desktop/sidechain/contracts/main/WebaverseERC20.sol",
    "compiler": {
        "name": "solc",
        "version": "0.8.7+commit.e28d00a7.Emscripten.clang"
    },
    "schemaVersion": "3.4.3",
    "updatedAt": "2022-01-09T19:01:23.096Z",
    "networkType": "ethereum",
    "devdoc": {
        "kind": "dev",
        "methods": {
            "addMinter(address)": {
                "details": "Add an account to the list of accounts allowed to create ERC20 tokens",
                "params": {
                    "minter": "address to whitelist"
                }
            },
            "allowance(address,address)": {
                "details": "See {IERC20-allowance}."
            },
            "approve(address,uint256)": {
                "details": "See {IERC20-approve}. Requirements: - `spender` cannot be the zero address."
            },
            "balanceOf(address)": {
                "details": "See {IERC20-balanceOf}."
            },
            "claim(address,(uint256,uint256,uint256,uint256,bytes))": {
                "details": "Verification through ECDSA signature of 'typed' data.Voucher must contain valid signature, nonce, and expiry.",
                "params": {
                    "claimer": "The address of the account which will receive the NFT upon success.",
                    "voucher": "A signed NFTVoucher that describes the NFT to be redeemed."
                }
            },
            "constructor": {
                "details": "Create a new fungible token",
                "params": {
                    "maxSupply_": "Sets the token market cap. This value is immutable, it can only be set once during construction. Default cap: 2147483648000000000000000000 or (2**31) + '000000000000000000'",
                    "name": "Name of the token",
                    "symbol": "Token identifier"
                }
            },
            "decimals()": {
                "details": "Returns the number of decimals used to get its user representation. For example, if `decimals` equals `2`, a balance of `505` tokens should be displayed to a user as `5.05` (`505 / 10 ** 2`). Tokens usually opt for a value of 18, imitating the relationship between Ether and Wei. This is the value {ERC20} uses, unless this function is overridden; NOTE: This information is only used for _display_ purposes: it in no way affects any of the arithmetic of the contract, including {IERC20-balanceOf} and {IERC20-transfer}."
            },
            "decreaseAllowance(address,uint256)": {
                "details": "Atomically decreases the allowance granted to `spender` by the caller. This is an alternative to {approve} that can be used as a mitigation for problems described in {IERC20-approve}. Emits an {Approval} event indicating the updated allowance. Requirements: - `spender` cannot be the zero address. - `spender` must have allowance for the caller of at least `subtractedValue`."
            },
            "externalClaim(address,address,(uint256,uint256,uint256,uint256,bytes))": {
                "details": "Verification through ECDSA signature of 'typed' data.Voucher must contain valid signature, nonce, and expiry.",
                "params": {
                    "claimer": "The address of the account which will receive the balance upon success.",
                    "contractAddress": "The address of the contract from which the token is being transferred",
                    "voucher": "A signed Voucher that describes the ERC20 tokens to be redeemed."
                }
            },
            "increaseAllowance(address,uint256)": {
                "details": "Atomically increases the allowance granted to `spender` by the caller. This is an alternative to {approve} that can be used as a mitigation for problems described in {IERC20-approve}. Emits an {Approval} event indicating the updated allowance. Requirements: - `spender` cannot be the zero address."
            },
            "isAllowedMinter(address)": {
                "details": "Checks if an address is allowed to mint ERC20 tokens",
                "params": {
                    "account": "address to check for the white listing for"
                },
                "returns": {
                    "_0": "true if address is allowed to mint"
                }
            },
            "maxSupply()": {
                "returns": {
                    "_0": "Maximum number of tokens that can be minted"
                }
            },
            "mint(address,uint256)": {
                "details": "Mint ERC20 tokens",
                "params": {
                    "amount": "Number of tokens to mint for this call",
                    "to": "Tokens created for this account"
                }
            },
            "name()": {
                "details": "Returns the name of the token."
            },
            "owner()": {
                "details": "Returns the address of the current owner."
            },
            "removeMinter(address)": {
                "details": "Remove an account from the list of accounts allowed to create ERC20 tokens",
                "params": {
                    "minter": "address to remove from whitelist"
                }
            },
            "renounceOwnership()": {
                "details": "Leaves the contract without owner. It will not be possible to call `onlyOwner` functions anymore. Can only be called by the current owner. NOTE: Renouncing ownership will leave the contract without an owner, thereby removing any functionality that is only available to the owner."
            },
            "symbol()": {
                "details": "Returns the symbol of the token, usually a shorter version of the name."
            },
            "totalSupply()": {
                "details": "See {IERC20-totalSupply}."
            },
            "transfer(address,uint256)": {
                "details": "See {IERC20-transfer}. Requirements: - `recipient` cannot be the zero address. - the caller must have a balance of at least `amount`."
            },
            "transferFrom(address,address,uint256)": {
                "details": "See {IERC20-transferFrom}. Emits an {Approval} event indicating the updated allowance. This is not required by the EIP. See the note at the beginning of {ERC20}. Requirements: - `sender` and `recipient` cannot be the zero address. - `sender` must have a balance of at least `amount`. - the caller must have allowance for ``sender``'s tokens of at least `amount`."
            },
            "transferOwnership(address)": {
                "details": "Transfers ownership of the contract to a new account (`newOwner`). Can only be called by the current owner."
            },
            "verifyVoucher((uint256,uint256,uint256,uint256,bytes))": {
                "details": "Verification through ECDSA signature of 'typed' data.Voucher must contain valid signature, nonce, and expiry.*",
                "params": {
                    "voucher": "A signed NFTVoucher that describes the NFT to be redeemed."
                }
            }
        },
        "version": 1
    },
    "userdoc": {
        "kind": "user",
        "methods": {
            "claim(address,(uint256,uint256,uint256,uint256,bytes))": {
                "notice": "Redeems an NFTVoucher for an actual NFT, authorized by the owner."
            },
            "externalClaim(address,address,(uint256,uint256,uint256,uint256,bytes))": {
                "notice": "Redeems an Voucher for actual ERC20 tokens, authorized by the owner from an external contract."
            },
            "verifyVoucher((uint256,uint256,uint256,uint256,bytes))": {
                "notice": "Verifies an NFTVoucher for an actual NFT, authorized by the owner."
            }
        },
        "version": 1
    }
}